:100000000C942A000C943F000C943F000C943F0089
:100010000C943F000C943F000C943F000C943F0064
:100020000C943F000C943F000C943F000C943F0054
:100030000C943F000C943F000C943F000C943F0044
:100040000C943F000C943F000C943F000C943F0034
:100050000C943F0011241FBECFE5D8E0DEBFCDBF1A
:1000600010E0A0E6B0E0EEE4FEE102C005900D92E3
:10007000A836B107D9F70E94DC0E0C94250F0C941A
:100080000000EF92FF920F931F937B018C0120E001
:1000900030E040E05FE40E94410388238CF0C80117
:1000A000B70120E030E040E05FE40E94B9010E9427
:1000B000A1039B01AC01205030404040504806C095
:1000C000C801B7010E94A1039B01AC01B901CA019B
:1000D0001F910F91FF90EF900895A0E0B0E0E3E74B
:1000E000F0E00C94EE0EDC012B01FA019C919230B1
:1000F00008F439C1EB018881823008F433C19430AF
:1001000069F4843009F02FC111969C91119789816F
:10011000981709F428C1A0E6B0E025C1843009F49D
:1001200021C18230A9F4923009F01DC19A01AD01BC
:1001300088E0EA010990AE01E90109929E0181502F
:10014000C1F7E201898111969C918923818308C1BD
:10015000923009F407C112962D903C901397EB0151
:100160008A819B811496AD90BD90CD90DC901797BD
:10017000EC80FD800E811F819101281B390BB90194
:1001800037FF04C066277727621B730B6032710547
:100190000CF061C0121613066CF537014801062EEB
:1001A00004C096948794779467940A94D2F721E0D8
:1001B00030E040E050E004C0220F331F441F551FC1
:1001C0006A95D2F721503040404050402E213F21C7
:1001D00040235123211531054105510521F021E02E
:1001E00030E040E050E079018A01E628F72808294C
:1001F00019293CC0232BD1F1260E371E35014601AB
:10020000062E04C096948794779467940A94D2F744
:1002100021E030E040E050E004C0220F331F441FD3
:10022000551F6A95D2F721503040404050402A2156
:100230003B214C215D21211531054105510521F05E
:1002400021E030E040E050E059016A01A628B728DB
:10025000C828D9280BC0821593052CF01C01AA24AC
:10026000BB24650103C0EE24FF24870111969C91F5
:10027000D20111968C91981709F445C0992339F051
:10028000A80197012A193B094C095D0906C0A6017E
:1002900095012E193F09400B510B57FD08C01182E3
:1002A0003382228224833583468357831DC081E0B5
:1002B00081833382228288279927DC01821B930B5A
:1002C000A40BB50B84839583A683B7830DC0220F3F
:1002D000331F441F551F24833583468357838281F0
:1002E000938101979383828324813581468157814D
:1002F000DA01C9010197A109B1098F5F9F4FAF4F83
:10030000BF4328F30BC0918333822282EA0CFB1C8B
:100310000C1D1D1DE482F5820683178383E0808314
:10032000248135814681578157FF1AC0C901AA2708
:1003300097FDA095BA2F81709070A070B0705695FF
:10034000479537952795822B932BA42BB52B848328
:100350009583A683B7838281938101969383828359
:10036000DF0101C0D201CD01CDB7DEB7E2E10C94CF
:100370000A0FA0E2B0E0EFEBF1E00C94FA0E698313
:100380007A838B839C832D833E834F835887E9E058
:10039000EE2EF12CEC0EFD1ECE010196B7010E944F
:1003A000CA048E010F5E1F4FCE010596B8010E9450
:1003B000CA048A8991E089278A8BC701B801AE01F6
:1003C000475E5F4F0E946D000E94F503A096E6E035
:1003D0000C94160FA0E2B0E0E0EFF1E00C94FA0EFE
:1003E00069837A838B839C832D833E834F835887D5
:1003F000F9E0EF2EF12CEC0EFD1ECE010196B701B7
:100400000E94CA048E010F5E1F4FCE010596B801EF
:100410000E94CA04C701B801AE01475E5F4F0E9447
:100420006D000E94F503A096E6E00C94160FA0E282
:10043000B0E0EDE1F2E00C94EE0E69837A838B83F9
:100440009C832D833E834F835887CE010196BE0146
:10045000675F7F4F0E94CA04CE010596BE016F5EA2
:100460007F4F0E94CA049985923088F08989823032
:10047000C8F0943019F4823051F404C0843029F467
:10048000923081F480E690E0C6C0923049F420E0DA
:100490009A858A89981321E02A87CE010996BBC0E4
:1004A000823049F420E09A858A89981321E02A8BCA
:1004B000CE014196B0C02D843E844F8458886D880B
:1004C0007E888F88988CEE24FF248701AA24BB2481
:1004D000650140E050E060E070E0E0E0F0E0C10184
:1004E00081709070892BE9F0E60CF71C081D191D2E
:1004F0009A01AB012A0D3B1D4C1D5D1D80E090E073
:10050000A0E0B0E0E614F7040805190520F481E046
:1005100090E0A0E0B0E0BA01A901480F591F6A1F9E
:100520007B1FAA0CBB1CCC1CDD1C97FE08C081E005
:1005300090E0A0E0B0E0A82AB92ACA2ADB2A3196C6
:10054000E032F10549F0660C771C881C991C569422
:10055000479437942794C3CFFA85EA892B893C893D
:100560008B859C85280F391F2E5F3F4F17C0CA010E
:1005700081709070892B61F016950795F794E79438
:1005800080E090E0A0E0B0E8E82AF92A0A2B1B2BD3
:1005900076956795579547952F5F3F4F77FDE7CF46
:1005A0000CC0440F551F661F771F17FD4160EE0CEE
:1005B000FF1C001F111F21503040403090E05907B0
:1005C00090E0690790E4790760F32B8F3C8FDB01A3
:1005D000CA018F779070A070B07080349105A1052A
:1005E000B10561F447FD0AC0E114F10401051105EC
:1005F00029F0405C5F4F6F4F7F4F40781A8EFE1797
:1006000011F081E08A8F4D8F5E8F6F8F78A383E02A
:10061000898FCE0149960E94F503A096E2E10C94E1
:100620000A0FA8E1B0E0E7E1F3E00C94FA0E698369
:100630007A838B839C832D833E834F83588789E005
:10064000E82EF12CEC0EFD1ECE010196B7010E94A2
:10065000CA048E010F5E1F4FCE010596B8010E949D
:10066000CA048985823040F08989823028F0C70128
:10067000B8010E94420501C08FEF6896E6E00C9435
:10068000160FA8E1B0E0E7E4F3E00C94FA0E6983FA
:100690007A838B839C832D833E834F83588789E0A5
:1006A000E82EF12CEC0EFD1ECE010196B7010E9442
:1006B000CA048E010F5E1F4FCE010596B8010E943D
:1006C000CA048985823040F08989823028F0C701C8
:1006D000B8010E94420501C08FEF6896E6E00C94D5
:1006E000160FA8E1B0E0E7E7F3E00C94FA0E698397
:1006F0007A838B839C832D833E834F83588789E045
:10070000E82EF12CEC0EFD1ECE010196B7010E94E1
:10071000CA048E010F5E1F4FCE010596B8010E94DC
:10072000CA048985823040F08989823028F0C70167
:10073000B8010E94420501C081E06896E6E00C9491
:10074000160FACE0B0E0E7EAF3E00C94FE0E69832C
:100750007A838B839C83CE010196BE016B5F7F4FB2
:100760000E94CA048D81823061F1823050F1843060
:1007700021F48E81882351F12EC02F81388537FDD9
:1007800020C06E812F3131051CF06623F9F023C0A3
:100790008EE190E0821B930B29853A854B855C8521
:1007A00004C056954795379527958A95D2F76623C5
:1007B000B1F050954095309521953F4F4F4F5F4F89
:1007C0000EC020E030E040E050E009C02FEF3FEFE6
:1007D0004FEF5FE704C020E030E040E050E8B901AF
:1007E000CA012C96E2E00C941A0FDF92EF92FF926E
:1007F0000F931F93FC01E480F58006811781D1805F
:100800008081823048F480E090E0A0E1B0E0E82A06
:10081000F92A0A2B1B2BA5C0843009F49FC0823013
:1008200021F4EE24FF24870105C0E114F104010541
:10083000110519F4E0E0F0E096C0628173819FEF4A
:10084000623879070CF05BC022E83FEF261B370BBC
:100850002A3131052CF020E030E040E050E02AC0A1
:10086000B801A701022E04C0769567955795479564
:100870000A94D2F781E090E0A0E0B0E004C0880FD5
:10088000991FAA1FBB1F2A95D2F70197A109B10989
:100890008E219F21A023B1230097A105B10521F04E
:1008A00081E090E0A0E0B0E09A01AB01282B392B69
:1008B0004A2B5B2BDA01C9018F779070A070B07062
:1008C00080349105A105B10539F427FF09C0205CEA
:1008D0003F4F4F4F5F4F04C0215C3F4F4F4F5F4F23
:1008E000E0E0F0E02030A0E03A07A0E04A07A0E412
:1008F0005A0710F0E1E0F0E079018A0127C0603882
:10090000710564F5FB01E158FF4FD801C7018F77EE
:100910009070A070B07080349105A105B10539F4D4
:10092000E7FE0DC080E490E0A0E0B0E004C08FE3FB
:1009300090E0A0E0B0E0E80EF91E0A1F1B1F17FFB1
:1009400005C016950795F794E794319687E01695BC
:100950000795F794E7948A95D1F705C0EE24FF2414
:100960008701EFEFF0E06E2F679566276795902F70
:100970009F77D794DD24D7948E2F8695492F462BC9
:10098000582F5D29B701CA011F910F91FF90EF9079
:10099000DF900895FC01DB01408151812281622FAB
:1009A0006F7770E0221F2227221F9381892F880FE3
:1009B000822B282F30E0991F9927991F11969C931D
:1009C000119721153105A9F54115510561057105ED
:1009D00011F482E037C082E89FEF13969C938E93C8
:1009E00012979A01AB0167E0220F331F441F551F76
:1009F0006A95D1F783E08C930DC0220F331F441FFB
:100A0000551F12968D919C911397019713969C9365
:100A10008E931297203080E0380780E0480780E40A
:100A2000580758F314962D933D934D935C93179765
:100A300008952F3F310579F4411551056105710580
:100A400019F484E08C93089564FF03C081E08C93D3
:100A500012C01C9210C02F57304013963C932E9317
:100A6000129783E08C9387E0440F551F661F771F12
:100A70008A95D1F7706414964D935D936D937C9332
:100A8000179708951F93DC01FB019C91923008F4A5
:100A900047C08081823008F443C0943051F41196ED
:100AA0001C91843099F58181682F70E0611B710978
:100AB0003FC0843021F0923031F48230B9F181812D
:100AC000882389F12DC011961C9111978230F1F085
:100AD00081811817D9F412962D913C911397828138
:100AE00093818217930794F028173907BCF0149666
:100AF0008D919D910D90BC91A02D248135814681D1
:100B00005781281739074A075B0718F4112341F06A
:100B10000AC082179307A407B50740F4112319F000
:100B200061E070E005C06FEF7FEF02C060E070E051
:100B3000CB011F910895DF93CF93CDB7DEB782E04D
:100B400062E00E94970E82E067E00E94970E83E0C9
:100B500063E00E94970ECF91DF9108950F931F934A
:100B6000DF93CF93CDB7DEB7C655D0400FB6F8941C
:100B7000DEBF0FBECDBFFE01EB5AFF4F81E0808389
:100B800082E062E041E00E94AC0EFE01EB5AFF4FB2
:100B90008083FE01EB5AFF4F8081813041F4FE01DA
:100BA000EB5AFF4F808167968FAF67977AC3FE013C
:100BB000EF5AFF4F80E090E0AAEFB4E48083918386
:100BC000A283B3838E01035B1F4FFE01EF5AFF4FD9
:100BD000608171818281938120E030E04AE753E4B3
:100BE0000E941702DC01CB01F80180839183A2836C
:100BF000B383FE01E35BFF4F60817181828193814A
:100C000020E030E040E85FE30E947103882344F471
:100C1000FE01E55BFF4F81E090E09183808364C03B
:100C2000FE01E35BFF4F608171818281938120E04F
:100C30003FEF4FE757E40E94110318160CF043C032
:100C4000FE01EF5AFF4F608171818281938120E024
:100C500030E040E251E40E941702DC01CB018E013A
:100C6000055B1F4FBC01CD010E944100DC01CB019F
:100C7000F801918380831FC0FE01E75BFF4F89E18C
:100C800090E091838083FE01E75BFF4F808191813B
:100C90000197F1F7FE01E75BFF4F91838083DE014F
:100CA000A55BBF4FFE01E55BFF4F808191810197FE
:100CB00011969C938E93FE01E55BFF4F808191819D
:100CC0000097D1F627C08E01055B1F4FFE01E35B45
:100CD000FF4F60817181828193810E944100DC011C
:100CE000CB01F80191838083DE01A95BBF4FFE0138
:100CF000E55BFF4F808191818D939C93FE01E95BC1
:100D0000FF4F808191810197F1F7FE01E95BFF4F71
:100D10009183808382E067E041E00E94AC0EFE0197
:100D2000EB5AFF4F8083FE01EB5AFF4F80818130E9
:100D300041F4FE01EB5AFF4F808167968FAF6797B2
:100D4000B0C2FE01ED5BFF4F80E090E0AAEFB4E49B
:100D500080839183A283B3838E01015C1F4FFE01C8
:100D6000ED5BFF4F608171818281938120E030E0F3
:100D70004AE753E40E941702DC01CB01F8018083AB
:100D80009183A283B383FE01FF966081718182818A
:100D9000938120E030E040E85FE30E947103882304
:100DA0002CF481E090E09EAF8DAF46C0FE01FF962F
:100DB000608171818281938120E03FEF4FE757E4AA
:100DC0000E941103181664F5FE01ED5BFF4F608170
:100DD00071818281938120E030E040E251E40E9401
:100DE0001702DC01CB01BC01CD010E944100DC01F6
:100DF000CB019EAF8DAF0FC089E190E09CAF8BAF70
:100E00008BAD9CAD0197F1F79CAF8BAF8DAD9EADD7
:100E100001979EAF8DAF8DAD9EAD009769F716C05F
:100E2000FE01FF9660817181828193810E94410061
:100E3000DC01CB019EAF8DAF8DAD9EAD9AAF89AF7A
:100E400089AD9AAD0197F1F79AAF89AF83E063E07E
:100E500041E00E94AC0EFE01EB5AFF4F8083FE0181
:100E6000EB5AFF4F8081813041F4FE01EB5AFF4F76
:100E7000808167968FAF679714C280E090E0AAEFF9
:100E8000B4E48DAB9EABAFABB8AF6DA97EA98FA913
:100E900098AD20E030E04AE753E40E941702DC01FD
:100EA000CB0189AB9AABABABBCAB69A97AA98BA9D7
:100EB0009CA920E030E040E85FE30E9471038823B2
:100EC0002CF481E090E098AB8FA73FC069A97AA984
:100ED0008BA99CA920E03FEF4FE757E40E94110344
:100EE00018164CF56DA97EA98FA998AD20E030E0C9
:100EF00040E251E40E941702DC01CB01BC01CD01AC
:100F00000E944100DC01CB0198AB8FA70FC089E1A3
:100F100090E09EA78DA78DA59EA50197F1F79EA7AE
:100F20008DA78FA598A9019798AB8FA78FA598A992
:100F3000009769F714C069A97AA98BA99CA90E9496
:100F40004100DC01CB0198AB8FA78FA598A99CA786
:100F50008BA78BA59CA50197F1F79CA78BA782E097
:100F600062E040E00E94AC0EFE01EB5AFF4F80832E
:100F7000FE01EB5AFF4F8081813041F4FE01EB5AB4
:100F8000FF4F808167968FAF67978BC180E090E0BD
:100F9000AAEFB4E48FA398A7A9A7BAA76FA178A5D1
:100FA00089A59AA520E030E04AE753E40E941702A1
:100FB000DC01CB018BA39CA3ADA3BEA36BA17CA141
:100FC0008DA19EA120E030E040E85FE30E94710324
:100FD00088232CF481E090E09AA389A33FC06BA101
:100FE0007CA18DA19EA120E03FEF4FE757E40E9436
:100FF000110318164CF56FA178A589A59AA520E0D4
:1010000030E040E251E40E941702DC01CB01BC0158
:10101000CD010E944100DC01CB019AA389A30FC03E
:1010200089E190E098A38F8F8F8D98A10197F1F7B8
:1010300098A38F8F89A19AA101979AA389A389A1C7
:101040009AA1009769F714C06BA17CA18DA19EA104
:101050000E944100DC01CB019AA389A389A19AA136
:101060009E8F8D8F8D8D9E8D0197F1F79E8F8D8F29
:1010700082E067E040E00E94AC0EFE01EB5AFF4FB9
:101080008083FE01EB5AFF4F8081813041F4FE01E5
:10109000EB5AFF4F808167968FAF679702C180E060
:1010A00090E0AAEFB4E4898F9A8FAB8FBC8F698DE3
:1010B0007A8D8B8D9C8D20E030E04AE753E40E94CE
:1010C0001702DC01CB018D8B9E8BAF8BB88F6D89A6
:1010D0007E898F89988D20E030E040E85FE30E94B0
:1010E000710388232CF481E090E09C8B8B8B3FC0B4
:1010F0006D897E898F89988D20E03FEF4FE757E417
:101100000E94110318164CF5698D7A8D8B8D9C8D7C
:1011100020E030E040E251E40E941702DC01CB0104
:10112000BC01CD010E944100DC01CB019C8B8B8B6B
:101130000FC089E190E09A8B898B89899A89019700
:10114000F1F79A8B898B8B899C8901979C8B8B8B70
:101150008B899C89009769F714C06D897E898F8976
:10116000988D0E944100DC01CB019C8B8B8B8B897D
:101170009C89988B8F878F8598890197F1F7988B39
:101180008F8783E063E040E00E94AC0EFE01EB5AE3
:10119000FF4F8083FE01EB5AFF4F8081813041F485
:1011A000FE01EB5AFF4F808167968FAF679779C03A
:1011B00080E090E0AAEFB4E48B879C87AD87BE8780
:1011C0006B857C858D859E8520E030E04AE753E481
:1011D0000E941702DC01CB018F839887A987BA8709
:1011E0006F81788589859A8520E030E040E85FE36B
:1011F0000E94710388232CF481E090E09E838D830C
:101200003FC06F81788589859A8520E03FEF4FE761
:1012100057E40E94110318164CF56B857C858D856B
:101220009E8520E030E040E251E40E941702DC019C
:10123000CB01BC01CD010E944100DC01CB019E83AA
:101240008D830FC089E190E09C838B838B819C818F
:101250000197F1F79C838B838D819E8101979E83FB
:101260008D838D819E81009769F714C06F81788589
:1012700089859A850E944100DC01CB019E838D8384
:101280008D819E819A83898389819A810197F1F763
:101290009A838983FE01EB5AFF4F808167968FAF57
:1012A000679767968FAD6797CA5ADF4F0FB6F89466
:1012B000DEBF0FBECDBFCF91DF911F910F9108957B
:1012C000DF93CF93CDB7DEB780E063E041E00E94CB
:1012D0000F0ACF91DF910895DF93CF93CDB7DEB79B
:1012E00080E063E041E00E94AF0BCF91DF91089571
:1012F000DF93CF93CDB7DEB780E063E00E941A0D95
:10130000CF91DF910895DF93CF93CDB7DEB72797C5
:101310000FB6F894DEBF0FBECDBF8A836B8381E02A
:1013200089838A81843008F070C08B81823008F014
:101330006CC08B818130B9F58A81282F30E03F83E2
:101340002E838E819F8181309105D9F02E813F813E
:10135000223031052CF48E819F81009761F055C0B9
:101360002E813F812230310591F08E819F81833023
:10137000910599F04AC0EAE3F0E08FEF808319828B
:1013800044C0E7E3F0E08FEF808319823EC0E4E3DE
:10139000F0E08FEF8083198238C0E1E3F0E08FEF57
:1013A0008083198232C08A81282F30E03D832C83CC
:1013B0008C819D8181309105D1F02C813D8122303D
:1013C00031052CF48C819D81009761F01EC02C8129
:1013D0003D812230310581F08C819D8183309105E2
:1013E00081F013C0EAE3F0E0108219820EC0E7E357
:1013F000F0E01082198209C0E4E3F0E01082198263
:1014000004C0E1E3F0E010821982898127960FB6CB
:10141000F894DEBF0FBECDBFCF91DF910895DF936B
:10142000CF93CDB7DEB728970FB6F894DEBF0FBEC7
:10143000CDBF8A836B834C8381E089838A8184302A
:1014400008F0F7C08C81823008F0F3C08B818830BF
:1014500008F0EFC08C81813009F074C08A81282F98
:1014600030E038872F838F8198858130910559F13D
:101470002F813885223031052CF48F819885009793
:1014800069F0D7C02F8138852230310589F18F81ED
:1014900098858330910509F440C0CBC0AAE3B0E041
:1014A000EAE3F0E08081482F8B81282F30E081E053
:1014B00090E0022E02C0880F991F0A94E2F7842B55
:1014C0008C931982B6C0A7E3B0E0E7E3F0E0808137
:1014D000482F8B81282F30E081E090E0022E02C05F
:1014E000880F991F0A94E2F7842B8C931982A1C06C
:1014F000A4E3B0E0E4E3F0E08081482F8B81282F63
:1015000030E081E090E0022E02C0880F991F0A941B
:10151000E2F7842B8C9319828CC0A1E3B0E0E1E365
:10152000F0E08081482F8B81282F30E081E090E02F
:10153000022E02C0880F991F0A94E2F7842B8C9325
:10154000198277C08A81282F30E03E832D838D81D8
:101550009E818130910561F12D813E8122303105DE
:101560002CF48D819E81009769F063C02D813E81AE
:101570002230310599F18D819E818330910509F4E6
:1015800043C057C0AAE3B0E0EAE3F0E08081482F0F
:101590008B81282F30E081E090E0022E02C0880F7E
:1015A000991F0A94E2F7809584238C93198241C095
:1015B000A7E3B0E0E7E3F0E08081482F8B81282F9C
:1015C00030E081E090E0022E02C0880F991F0A945B
:1015D000E2F7809584238C9319822BC0A4E3B0E0BA
:1015E000E4E3F0E08081482F8B81282F30E081E018
:1015F00090E0022E02C0880F991F0A94E2F78095AE
:1016000084238C93198215C0A1E3B0E0E1E3F0E0FC
:101610008081482F8B81282F30E081E090E0022EDE
:1016200002C0880F991F0A94E2F7809584238C9357
:101630001982898128960FB6F894DEBF0FBECDBF00
:10164000CF91DF910895DF93CF93CDB7DEB7279782
:101650000FB6F894DEBF0FBECDBF8A836B8381E0E7
:1016600089838A81843008F070C08B81823008F0D1
:101670006CC08B818130B9F58A81282F30E03F839F
:101680002E838E819F8181309105D9F02E813F81FB
:10169000223031052CF48E819F81009761F055C076
:1016A0002E813F812230310591F08E819F818330E0
:1016B000910599F04AC0EBE3F0E08FEF8083198247
:1016C00044C0E8E3F0E08FEF808319823EC0E5E399
:1016D000F0E08FEF8083198238C0E2E3F0E08FEF13
:1016E0008083198232C08A81282F30E03D832C8389
:1016F0008C819D8181309105D1F02C813D812230FA
:1017000031052CF48C819D81009761F01EC02C81E5
:101710003D812230310581F08C819D81833091059E
:1017200081F013C0EBE3F0E0108219820EC0E8E311
:10173000F0E01082198209C0E5E3F0E0108219821E
:1017400004C0E2E3F0E010821982898127960FB687
:10175000F894DEBF0FBECDBFCF91DF910895DF9328
:10176000CF93CDB7DEB728970FB6F894DEBF0FBE84
:10177000CDBF8A836B834C8381E089838A818430E7
:1017800008F0F7C08C81823008F0F3C08B8188307C
:1017900008F0EFC08C81813009F074C08A81282F55
:1017A00030E038872F838F8198858130910559F1FA
:1017B0002F813885223031052CF48F819885009750
:1017C00069F0D7C02F8138852230310589F18F81AA
:1017D00098858330910509F440C0CBC0ABE3B0E0FD
:1017E000EBE3F0E08081482F8B81282F30E081E00F
:1017F00090E0022E02C0880F991F0A94E2F7842B12
:101800008C931982B6C0A8E3B0E0E8E3F0E08081F1
:10181000482F8B81282F30E081E090E0022E02C01B
:10182000880F991F0A94E2F7842B8C931982A1C028
:10183000A5E3B0E0E5E3F0E08081482F8B81282F1D
:1018400030E081E090E0022E02C0880F991F0A94D8
:10185000E2F7842B8C9319828CC0A2E3B0E0E2E320
:10186000F0E08081482F8B81282F30E081E090E0EC
:10187000022E02C0880F991F0A94E2F7842B8C93E2
:10188000198277C08A81282F30E03E832D838D8195
:101890009E818130910561F12D813E81223031059B
:1018A0002CF48D819E81009769F063C02D813E816B
:1018B0002230310599F18D819E818330910509F4A3
:1018C00043C057C0ABE3B0E0EBE3F0E08081482FCA
:1018D0008B81282F30E081E090E0022E02C0880F3B
:1018E000991F0A94E2F7809584238C93198241C052
:1018F000A8E3B0E0E8E3F0E08081482F8B81282F57
:1019000030E081E090E0022E02C0880F991F0A9417
:10191000E2F7809584238C9319822BC0A5E3B0E075
:10192000E5E3F0E08081482F8B81282F30E081E0D3
:1019300090E0022E02C0880F991F0A94E2F780956A
:1019400084238C93198215C0A2E3B0E0E2E3F0E0B7
:101950008081482F8B81282F30E081E090E0022E9B
:1019600002C0880F991F0A94E2F7809584238C9314
:101970001982898128960FB6F894DEBF0FBECDBFBD
:10198000CF91DF910895DF93CF9300D000D0CDB7F2
:10199000DEB78A8381E089838A81843008F042C07F
:1019A0008A81282F30E03C832B838B819C8181307E
:1019B0009105F1F02B813C81223031052CF48B8193
:1019C0009C81009761F02EC02B813C812230310533
:1019D000C1F08B819C8183309105E1F023C0ABE3A2
:1019E000B0E0EBE3F0E0808180958C9319821AC01F
:1019F000A8E3B0E0E8E3F0E0808180958C93198261
:101A000011C0A5E3B0E0E5E3F0E0808180958C9320
:101A1000198208C0A2E3B0E0E2E3F0E080818095A3
:101A20008C93198289810F900F900F900F90CF9116
:101A3000DF910895DF93CF9300D000D00F92CDB700
:101A4000DEB78A836B8381E089838A81843008F0E2
:101A500077C08B81883008F073C08A81282F30E0EE
:101A60003D832C838C819D818130910559F12C819E
:101A70003D81223031052CF48C819D81009769F0E5
:101A80005FC02C813D812230310589F18C819D819F
:101A90008330910509F440C053C0ABE3B0E0EBE301
:101AA000F0E08081482F8B81282F30E081E090E0AA
:101AB000022E02C0880F991F0A94E2F784278C93A4
:101AC00019823EC0A8E3B0E0E8E3F0E08081482F4F
:101AD0008B81282F30E081E090E0022E02C0880F39
:101AE000991F0A94E2F784278C93198229C0A5E3F1
:101AF000B0E0E5E3F0E08081482F8B81282F30E0D3
:101B000081E090E0022E02C0880F991F0A94E2F74C
:101B100084278C93198214C0A2E3B0E0E2E3F0E0E2
:101B20008081482F8B81282F30E081E090E0022EC9
:101B300002C0880F991F0A94E2F784278C931982B8
:101B400089810F900F900F900F900F90CF91DF91A0
:101B50000895DF93CF9300D000D000D0CDB7DEB78B
:101B60008A837C836B8381E089838A81843008F057
:101B70003EC08A81282F30E03E832D838D819E8157
:101B800081309105E9F02D813E81223031052CF420
:101B90008D819E81009761F02AC02D813E81223087
:101BA0003105B1F08D819E8183309105C9F01FC050
:101BB000E9E3F0E08081EB81FC818083198217C02A
:101BC000E6E3F0E08081EB81FC81808319820FC025
:101BD000E3E3F0E08081EB81FC818083198207C020
:101BE000E0E3F0E08081EB81FC81808319828981D0
:101BF00026960FB6F894DEBF0FBECDBFCF91DF9112
:101C00000895DF93CF93CDB7DEB727970FB6F8943B
:101C1000DEBF0FBECDBF8A836B835D834C8381E0C3
:101C200089838A81843008F078C08B81883008F0FD
:101C300074C08A81282F30E03F832E834E815F81DC
:101C40004130510561F18E819F818230910534F4DC
:101C50002E813F812115310569F05FC04E815F8182
:101C60004230510589F18E819F818330910509F4BD
:101C700040C053C0EBE3F0E08081282F30E08B813F
:101C8000882F90E0A90102C0559547958A95E2F703
:101C9000CA018170EC81FD81808319823EC0E8E336
:101CA000F0E08081282F30E08B81882F90E0A9011F
:101CB00002C0559547958A95E2F7CA018170EC817B
:101CC000FD818083198229C0E5E3F0E08081282F1F
:101CD00030E08B81882F90E0A90102C0559547958F
:101CE0008A95E2F7CA018170EC81FD8180831982B7
:101CF00014C0E2E3F0E08081282F30E08B81882F50
:101D000090E0A90102C0559547958A95E2F7CA016E
:101D10008170EC81FD8180831982898127960FB6BD
:101D2000F894DEBF0FBECDBFCF91DF910895DF9352
:101D3000CF9300D00F92CDB7DEB78A836B838A81B1
:101D40006B8141E00E940F0A898389810F900F9077
:101D50000F90CF91DF910895DF93CF9300D000D003
:101D6000CDB7DEB78A836B834C8381E089838C8116
:101D7000823030F48A816B814C810E94AF0B898361
:101D800089810F900F900F900F90CF91DF91089560
:101D9000DF93CF9300D00F92CDB7DEB78A836B83EA
:101DA0008A816B810E941A0D898389810F900F901F
:101DB0000F90CF91DF910895DF93CF930F92CDB71E
:101DC000DEB70E949B050E94AE0589838981882326
:101DD000D1F30E9460090E946C09F5CF2F923F92C7
:101DE0004F925F926F927F928F929F92AF92BF922B
:101DF000CF92DF92EF92FF920F931F93CF93DF93D7
:101E0000CDB7DEB7CA1BDB0B0FB6F894DEBF0FBE33
:101E1000CDBF09942A88398848885F846E847D8480
:101E20008C849B84AA84B984C884DF80EE80FD8082
:101E30000C811B81AA81B981CE0FD11D0FB6F894F8
:0E1E4000DEBF0FBECDBFED010895F894FFCFB9
:081E4E0000000000000000008C
:00000001FF
